:1000000019C034C033C032C031C030C02FC02EC080
:100010002DC02CC02BC02AC029C028C0F5C026C0C6
:1000200025C024C023C022C021C020C01FC01EC0C4
:100030001DC01CC011241FBECFEFCDBFDFE3DEBF4C
:100040008091400080934000811105C098ED21E02F
:1000500094BF209341008CBB2FE3A0E0BFE301C01D
:100060001D92AC30B207E1F700D1CEC1C9CF0F93DA
:100070001F93AB01BC018FB7F8940091043F10911E
:10008000053F2091063F3091073F8FBFEFB7F894AF
:100090008091043F9091053FA091063FB091073FAA
:1000A000EFBF801B910BA20BB30B84179507A6071C
:1000B000B70760F31F910F910895FC01A081AF77FE
:1000C000B0E0BC5EE0E0F0E10FB622812370E9F71A
:1000D000F8946C936DE964BF63E060830FBE08958C
:1000E000CF93DF93282F30E0D901A25EBB478C91DC
:1000F0008F3F61F1F901EE5EFB47E08190E2E99FFD
:10010000F0011124FC5F611124C086839081892352
:1001100099F4E901C45FDB4798813097E1F09830AA
:10012000D0F47096E90FF11D9FB7F89480816111AA
:1001300015C0877F80839FBF285E3B47F901808180
:10014000882321F0803161F08038C9F0DF91CF91B0
:1001500008958583DBCFF0E0E0E0E6CF8860EACF6A
:100160008C91803851F0853008F0880F9091010A09
:10017000809589238093010AE9CF81E0F7CF10921F
:100180008006E4CF90E0FC01E25EFB4720812F3F38
:10019000B9F0FC01EE5EFB47E08130E2E39FF00145
:1001A0001124FC5F613069F42183845F9B47DC018B
:1001B0008C91E80FF11D8089613029F08860808B77
:1001C00008952283F2CF877FFACFE0E8F6E08183BB
:1001D00080818164808361E080E0D4CF80910006DB
:1001E000882379F087E08093060681E080930806F3
:1001F00080910B0680FFFCCF809110069091110634
:10020000089589EF92E808958F9381E080938D0A95
:100210008FB78F93EF93FF93E0E0FFE39F93689492
:100220008FEF0FC0E894848195818C5E9F4F84830B
:100230009583885E934010F08FEF03C0848395838D
:100240008EEF9081981B919390819F4F9193908115
:100250009F4F919390819F4F919326F39F91FF9190
:10026000EF918F918FBF8F911895CF93DF931F924E
:10027000CDB7DEB711E088ED84BF10936100E0E0F8
:10028000F6E082E582838AE0858380E283831083BF
:10029000109302021093030A8EEF8093260A809334
:1002A000270A8BE08093000AE0E8FAE08DEF91E006
:1002B00086A797A7118280E88283148781E18083D3
:1002C000789460E083E00CDF61E083E05BDF8091A5
:1002D000A000887F83608093A0008091A0008F7829
:1002E00080628093A000809102068F788064809362
:1002F000020662E084E046DF62E082E043DF8AE5F6
:1003000090E063DF80910214853529F019836AE556
:10031000CE010196D2DE64EF71E080E090E0A7DECE
:100320005DDFFF24F394EE24E39482E0D82E8091E5
:10033000011490E04ADF52DF813293402CF0E092CA
:100340000A3F60E083E0CCDE80910A3F81110DC05E
:1003500080910B3F9091080493FD27C0882329F0DA
:1003600060E083E0BDDE10920B3F80910B3F811176
:10037000DECF8091080481FDDACF8AE590E025DFA9
:100380008FE097E20197F1F700C0000061E083E0A1
:10039000A7DE24DF0AE510E081329340B4F0F0924A
:1003A0000A3F60E083E09CDEC2CF8111DECF61E0D6
:1003B00083E096DEE0920B3FD8CFF0920A3FB7CFB2
:1003C0000F5F1F4F0E3F1105C1F3C801FEDE8FE026
:1003D00097E20197F1F700C0000000DF813A910534
:1003E0007CF3F982602FCE01019667DED98265E544
:1003F000CE01019662DE60E083E072DE64EF71E0C0
:0C04000080E090E034DE93CFF894FFCF52
:10040C00060701020300000000000000801010101D
:08041C001000408002040801F9
:00000001FF
