:1000000019C03FC03EC03DC03CC03BC03AC039C033
:1000100038C037C036C035C034C033C03CC131C031
:1000200030C02FC02EC02DC02CC02BC02AC029C06C
:1000300028C027C011241FBECFEFCDBFDFE3DEBF36
:100040008091400080934000811105C098ED21E02F
:1000500094BF209341008CBB1FE3A0E0BFE3E4E624
:10006000F5E002C005900D92A230B107D9F72FE359
:10007000A2E0BFE301C01D92AE30B207E1F73CD170
:1000800063C2BECF0F931F93AB01BC018FB7F8942F
:100090000091063F1091073F2091083F3091093FA2
:1000A0008FBFEFB7F8948091063F9091073FA091E2
:1000B000083FB091093FEFBF801B910BA20BB30B20
:1000C00084179507A607B70760F31F910F9108954E
:1000D000FC01A081AF77B0E0BC5EE0E0F0E10FB6DC
:1000E00022812370E9F7F8946C936DE964BF63E0B3
:1000F00060830FBE089590E0FC01E25AFA47208128
:100100002F3F79F08E5A9A47DC01EC91B0E2EB9FD9
:10011000F0011124FC5F9085922381E019F480E0C6
:1001200008958FEF0895CF93DF93282F30E0D90102
:10013000A25ABA478C918F3F61F1F901EE5AFA4702
:10014000E08190E2E99FF0011124FC5F611124C07D
:1001500086839081892399F4E901C45BDA47988109
:100160003097E1F09830D0F47096E90FF11D9FB709
:10017000F8948081611115C0877F80839FBF285AC2
:100180003A47F9018081882321F0803161F080387D
:10019000C9F0DF91CF9108958583DBCFF0E0E0E0F7
:1001A000E6CF8860EACF8C91803851F0853008F036
:1001B000880F9091010A809589238093010AE9CFE5
:1001C00081E0F7CF10928006E4CF90E0FC01E25A84
:1001D000FA4720812F3FB9F0FC01EE5AFA47E0813F
:1001E00030E2E39FF0011124FC5F613069F4218368
:1001F000845B9A47DC018C91E80FF11D80896130A6
:1002000029F08860808B08952283F2CF877FFACF10
:10021000E0E8F6E0818380818164808361E080E0B2
:10022000D4CF80910006882379F087E0809306067A
:1002300081E08093080680910B0680FFFCCF8091BF
:10024000100690911106089589EF92E808958AE5C5
:1002500090E0DEDF64E670E080E090E013DF60E0D5
:1002600083E061DF64E670E080E090E00BCF6C013A
:1002700061E082E0AADF0D2C000CEE08FF08C1E06F
:10028000C701B601FFDE60910C3F6C2760930C3F05
:1002900082E049DFF5CF8F9381E080938D0A8FB79D
:1002A0008F93EF93FF93E2E0FFE39F9368948FEFC8
:1002B0000FC0E894848195818C5E9F4F84839583E1
:1002C000885E934010F08FEF03C0848395838EEF98
:1002D0009081981B919390819F4F919390819F4F14
:1002E000919390819F4F919326F39F91FF91EF916E
:1002F0008F918FBF8F911895CF93DF931F92CDB7BA
:10030000DEB781E098ED94BF80936100E0E0F6E015
:1003100092E592839AE0958390E293838083809321
:1003200002028093030A9EEF9093260A9093270A75
:100330009BE09093000AE0E8FAE02DEF31E026A779
:1003400037A7118290E89283848781E18083789433
:1003500060E083E0E8DE61E083E037DF8091A000C9
:10036000887F83608093A0008091A0008F78806256
:100370008093A000809102068F78806480930206AB
:1003800062E084E022DF62E082E01FDF8AE590E045
:100390003FDF64EF71E080E090E074DE82E0ABDE8E
:1003A000811154C08AE590E033DF64E670E080E0BC
:1003B00090E068DE61E083E0B6DE64E670E080E055
:1003C00090E060DE0AE510E0C80122DF64E670E03C
:1003D00080E090E057DE25DF843A91050CF495C06B
:1003E00064E670E080E090E04DDE8AE590E010DFAA
:1003F00064E670E080E090E045DE60E083E093DE5C
:1004000064E670E080E090E03DDE81E08983602F6B
:10041000CE0101965DDE82E0898365E5CE0101961D
:1004200057DE64E670E080E090E02CDE8AE590E044
:10043000EFDE64E670E080E090E024DE60E083E0E0
:1004400072DE64E670E080E090E01CDE80910214D1
:100450008535F9F081E089836AE5CE01019638DEC1
:1004600061E082E0B2DE06E010E0FF24F39464E68F
:1004700070E080E090E006DE60910C3F6F256093B5
:100480000C3F82E050DE0150110989F762E082E002
:100490009CDE8091011490E08093003F9093013F97
:1004A00080910D3F882359F084E025DE811103C03F
:1004B000CEDE10920D3F80910D3F811138C084E057
:1004C0001ADE882379F18AE590E0A2DE64E670E026
:1004D00080E090E0D7DD61E083E025DE64E670E057
:1004E00080E090E0CFDD8091003F9091013F90DE71
:1004F00064E670E080E090E0C5DD93DE8115924017
:100500005CF0A5DE84E690E0B2DE0F5F1F4F0F3F88
:10051000110509F059CF85CF84DE97FDF2CF81E038
:1005200080930D3F80910D3F882309F4B9CF79DE88
:10053000811592401CF475DE97FFB2CF88DE1092D1
:0C0540000D3F88EE93E0E0CFF894FFCF71
:10054C0006070102030000000000000080101010DC
:08055C001000408002040801B8
:020564009600FF
:00000001FF
